{
  "contractName": "TokenAuction",
  "abi": [
    {
      "inputs": [
        {
          "internalType": "address",
          "name": "_nftAddress",
          "type": "address"
        }
      ],
      "stateMutability": "nonpayable",
      "type": "constructor"
    },
    {
      "inputs": [],
      "name": "nonFungibleContract",
      "outputs": [
        {
          "internalType": "contract ERC721",
          "name": "",
          "type": "address"
        }
      ],
      "stateMutability": "view",
      "type": "function"
    },
    {
      "inputs": [
        {
          "internalType": "uint256",
          "name": "",
          "type": "uint256"
        }
      ],
      "name": "tokenIdToAuction",
      "outputs": [
        {
          "internalType": "address payable",
          "name": "seller",
          "type": "address"
        },
        {
          "internalType": "uint128",
          "name": "price",
          "type": "uint128"
        }
      ],
      "stateMutability": "view",
      "type": "function"
    },
    {
      "inputs": [
        {
          "internalType": "uint256",
          "name": "_tokenId",
          "type": "uint256"
        },
        {
          "internalType": "uint128",
          "name": "_price",
          "type": "uint128"
        }
      ],
      "name": "createAuction",
      "outputs": [],
      "stateMutability": "nonpayable",
      "type": "function"
    },
    {
      "inputs": [
        {
          "internalType": "uint256",
          "name": "_tokenId",
          "type": "uint256"
        }
      ],
      "name": "bid",
      "outputs": [],
      "stateMutability": "payable",
      "type": "function"
    },
    {
      "inputs": [
        {
          "internalType": "uint256",
          "name": "_tokenId",
          "type": "uint256"
        }
      ],
      "name": "cancel",
      "outputs": [],
      "stateMutability": "nonpayable",
      "type": "function"
    }
  ],
  "bytecode": "0x608060405234801561001057600080fd5b50604051610ac4380380610ac48339818101604052602081101561003357600080fd5b8101908080519060200190929190505050806000806101000a81548173ffffffffffffffffffffffffffffffffffffffff021916908373ffffffffffffffffffffffffffffffffffffffff16021790555050610a30806100946000396000f3fe60806040526004361061004a5760003560e01c806340e58ee51461004f578063454a2ab31461008a5780637a906be0146100b8578063dd1b7a0f1461010f578063e3b1475714610166575b600080fd5b34801561005b57600080fd5b506100886004803603602081101561007257600080fd5b810190808035906020019092919050505061020c565b005b6100b6600480360360208110156100a057600080fd5b8101908080359060200190929190505050610468565b005b3480156100c457600080fd5b5061010d600480360360408110156100db57600080fd5b810190808035906020019092919080356fffffffffffffffffffffffffffffffff169060200190929190505050610756565b005b34801561011b57600080fd5b50610124610933565b604051808273ffffffffffffffffffffffffffffffffffffffff1673ffffffffffffffffffffffffffffffffffffffff16815260200191505060405180910390f35b34801561017257600080fd5b5061019f6004803603602081101561018957600080fd5b8101908080359060200190929190505050610958565b604051808373ffffffffffffffffffffffffffffffffffffffff1673ffffffffffffffffffffffffffffffffffffffff168152602001826fffffffffffffffffffffffffffffffff166fffffffffffffffffffffffffffffffff1681526020019250505060405180910390f35b6102146109b8565b600160008381526020019081526020016000206040518060400160405290816000820160009054906101000a900473ffffffffffffffffffffffffffffffffffffffff1673ffffffffffffffffffffffffffffffffffffffff1673ffffffffffffffffffffffffffffffffffffffff1681526020016001820160009054906101000a90046fffffffffffffffffffffffffffffffff166fffffffffffffffffffffffffffffffff166fffffffffffffffffffffffffffffffff168152505090503373ffffffffffffffffffffffffffffffffffffffff16816000015173ffffffffffffffffffffffffffffffffffffffff161461031057600080fd5b60016000838152602001908152602001600020600080820160006101000a81549073ffffffffffffffffffffffffffffffffffffffff02191690556001820160006101000a8154906fffffffffffffffffffffffffffffffff021916905550506000809054906101000a900473ffffffffffffffffffffffffffffffffffffffff1673ffffffffffffffffffffffffffffffffffffffff166323b872dd3033856040518463ffffffff1660e01b8152600401808473ffffffffffffffffffffffffffffffffffffffff1673ffffffffffffffffffffffffffffffffffffffff1681526020018373ffffffffffffffffffffffffffffffffffffffff1673ffffffffffffffffffffffffffffffffffffffff1681526020018281526020019350505050600060405180830381600087803b15801561044c57600080fd5b505af1158015610460573d6000803e3d6000fd5b505050505050565b6104706109b8565b600160008381526020019081526020016000206040518060400160405290816000820160009054906101000a900473ffffffffffffffffffffffffffffffffffffffff1673ffffffffffffffffffffffffffffffffffffffff1673ffffffffffffffffffffffffffffffffffffffff1681526020016001820160009054906101000a90046fffffffffffffffffffffffffffffffff166fffffffffffffffffffffffffffffffff166fffffffffffffffffffffffffffffffff16815250509050600073ffffffffffffffffffffffffffffffffffffffff16816000015173ffffffffffffffffffffffffffffffffffffffff16141561056e57600080fd5b80602001516fffffffffffffffffffffffffffffffff1634101561059157600080fd5b60008160000151905060008260200151905060016000858152602001908152602001600020600080820160006101000a81549073ffffffffffffffffffffffffffffffffffffffff02191690556001820160006101000a8154906fffffffffffffffffffffffffffffffff021916905550508173ffffffffffffffffffffffffffffffffffffffff166108fc826fffffffffffffffffffffffffffffffff169081150290604051600060405180830381858888f1935050505015801561065b573d6000803e3d6000fd5b506000809054906101000a900473ffffffffffffffffffffffffffffffffffffffff1673ffffffffffffffffffffffffffffffffffffffff166323b872dd3033876040518463ffffffff1660e01b8152600401808473ffffffffffffffffffffffffffffffffffffffff1673ffffffffffffffffffffffffffffffffffffffff1681526020018373ffffffffffffffffffffffffffffffffffffffff1673ffffffffffffffffffffffffffffffffffffffff1681526020018281526020019350505050600060405180830381600087803b15801561073857600080fd5b505af115801561074c573d6000803e3d6000fd5b5050505050505050565b6000809054906101000a900473ffffffffffffffffffffffffffffffffffffffff1673ffffffffffffffffffffffffffffffffffffffff166323b872dd3330856040518463ffffffff1660e01b8152600401808473ffffffffffffffffffffffffffffffffffffffff1673ffffffffffffffffffffffffffffffffffffffff1681526020018373ffffffffffffffffffffffffffffffffffffffff1673ffffffffffffffffffffffffffffffffffffffff1681526020018281526020019350505050600060405180830381600087803b15801561083257600080fd5b505af1158015610846573d6000803e3d6000fd5b505050506108526109b8565b60405180604001604052803373ffffffffffffffffffffffffffffffffffffffff168152602001836fffffffffffffffffffffffffffffffff168152509050806001600085815260200190815260200160002060008201518160000160006101000a81548173ffffffffffffffffffffffffffffffffffffffff021916908373ffffffffffffffffffffffffffffffffffffffff16021790555060208201518160010160006101000a8154816fffffffffffffffffffffffffffffffff02191690836fffffffffffffffffffffffffffffffff160217905550905050505050565b6000809054906101000a900473ffffffffffffffffffffffffffffffffffffffff1681565b60016020528060005260406000206000915090508060000160009054906101000a900473ffffffffffffffffffffffffffffffffffffffff16908060010160009054906101000a90046fffffffffffffffffffffffffffffffff16905082565b6040518060400160405280600073ffffffffffffffffffffffffffffffffffffffff16815260200160006fffffffffffffffffffffffffffffffff168152509056fea2646970667358221220b0c3a385fd8ebd70ccab7f5a417ed647c11339ae0dcf32de0649861a2769a1c164736f6c63430006020033",
  "source": "pragma solidity ^0.6.2;\n\nimport \"@openzeppelin/contracts/token/ERC721/ERC721.sol\";\n\ncontract TokenAuction {\n    ERC721 public nonFungibleContract;\n    struct Auction {\n        address payable seller;\n        uint128 price;\n    }\n\n    // every auction associated to specific token\n    /**{\n        token1: auction1,\n        token2: auction2\n        ...\n        tokenN: auctionN\n    }\n     */\n    mapping (uint256 => Auction) public tokenIdToAuction;\n\n    constructor(address _nftAddress) public {\n        nonFungibleContract = ERC721(_nftAddress);\n    }\n\n    function createAuction( uint256 _tokenId, uint128 _price ) public {\n        // auction takes temporary ownership of token\n        nonFungibleContract.transferFrom(msg.sender, address(this), _tokenId);\n        // assign new auction to temp memory variable\n        Auction memory _auction = Auction({\n            seller: msg.sender,\n            price: uint128(_price)\n        });\n        // associate newly created auction to this token\n        tokenIdToAuction[_tokenId] = _auction;\n    }\n\n    function bid( uint256 _tokenId ) public payable {\n        Auction memory auction = tokenIdToAuction[_tokenId];\n        // prevent returning empty struct by doing a non-null check\n        require(auction.seller != address(0));\n        // enough tokens sent in bid, match auction price\n        require(msg.value >= auction.price);\n\n        address payable seller = auction.seller;\n        uint128 price = auction.price;\n\n        delete tokenIdToAuction[_tokenId];\n        // auction keeps the sent value (and extra profit) and sends seller to original price.\n        // can be modified to transfer(msg.value)\n        seller.transfer(price);\n        // transfer the nft to bidder\n        nonFungibleContract.transferFrom(address(this), msg.sender, _tokenId);\n    }\n\n    function cancel( uint256 _tokenId ) public {\n        Auction memory auction = tokenIdToAuction[_tokenId];\n        require(auction.seller == msg.sender);\n\n        delete tokenIdToAuction[_tokenId];\n\n        nonFungibleContract.transferFrom(address(this), msg.sender, _tokenId);\n    }\n}",
  "sourcePath": "/Users/angela.lee/gradient-token-tutorial/contracts/TokenAuction.sol",
  "compiler": {
    "name": "solc",
    "version": "0.6.2+commit.bacdbe57.Emscripten.clang"
  },
  "schemaVersion": "3.3.2",
  "updatedAt": "2020-12-29T02:20:25.087Z",
  "devdoc": {
    "methods": {}
  },
  "userdoc": {
    "methods": {}
  }
}